{
  "_format": "hh-sol-artifact-1",
  "contractName": "CCRManager",
  "sourceName": "contracts/CCRManager.sol",
  "abi": [
    {
      "inputs": [
        {
          "internalType": "address",
          "name": "_ccrCoin",
          "type": "address"
        }
      ],
      "stateMutability": "nonpayable",
      "type": "constructor"
    },
    {
      "inputs": [],
      "name": "AccessControlBadConfirmation",
      "type": "error"
    },
    {
      "inputs": [
        {
          "internalType": "address",
          "name": "account",
          "type": "address"
        },
        {
          "internalType": "bytes32",
          "name": "neededRole",
          "type": "bytes32"
        }
      ],
      "name": "AccessControlUnauthorizedAccount",
      "type": "error"
    },
    {
      "anonymous": false,
      "inputs": [
        {
          "indexed": false,
          "internalType": "bytes32",
          "name": "uid",
          "type": "bytes32"
        },
        {
          "indexed": false,
          "internalType": "address",
          "name": "creator",
          "type": "address"
        },
        {
          "indexed": false,
          "internalType": "string",
          "name": "videoLink",
          "type": "string"
        }
      ],
      "name": "CourseCreated",
      "type": "event"
    },
    {
      "anonymous": false,
      "inputs": [
        {
          "indexed": false,
          "internalType": "bytes32",
          "name": "uid",
          "type": "bytes32"
        },
        {
          "indexed": false,
          "internalType": "address",
          "name": "student",
          "type": "address"
        }
      ],
      "name": "CourseEnrolled",
      "type": "event"
    },
    {
      "anonymous": false,
      "inputs": [
        {
          "indexed": false,
          "internalType": "bytes32",
          "name": "uid",
          "type": "bytes32"
        },
        {
          "indexed": false,
          "internalType": "address",
          "name": "updater",
          "type": "address"
        },
        {
          "indexed": false,
          "internalType": "enum CCRManager.Status",
          "name": "status",
          "type": "uint8"
        },
        {
          "indexed": false,
          "internalType": "string",
          "name": "videoLink",
          "type": "string"
        }
      ],
      "name": "CourseUpdated",
      "type": "event"
    },
    {
      "anonymous": false,
      "inputs": [
        {
          "indexed": true,
          "internalType": "bytes32",
          "name": "role",
          "type": "bytes32"
        },
        {
          "indexed": true,
          "internalType": "bytes32",
          "name": "previousAdminRole",
          "type": "bytes32"
        },
        {
          "indexed": true,
          "internalType": "bytes32",
          "name": "newAdminRole",
          "type": "bytes32"
        }
      ],
      "name": "RoleAdminChanged",
      "type": "event"
    },
    {
      "anonymous": false,
      "inputs": [
        {
          "indexed": true,
          "internalType": "bytes32",
          "name": "role",
          "type": "bytes32"
        },
        {
          "indexed": true,
          "internalType": "address",
          "name": "account",
          "type": "address"
        },
        {
          "indexed": true,
          "internalType": "address",
          "name": "sender",
          "type": "address"
        }
      ],
      "name": "RoleGranted",
      "type": "event"
    },
    {
      "anonymous": false,
      "inputs": [
        {
          "indexed": true,
          "internalType": "bytes32",
          "name": "role",
          "type": "bytes32"
        },
        {
          "indexed": true,
          "internalType": "address",
          "name": "account",
          "type": "address"
        },
        {
          "indexed": true,
          "internalType": "address",
          "name": "sender",
          "type": "address"
        }
      ],
      "name": "RoleRevoked",
      "type": "event"
    },
    {
      "inputs": [],
      "name": "DEFAULT_ADMIN_ROLE",
      "outputs": [
        {
          "internalType": "bytes32",
          "name": "",
          "type": "bytes32"
        }
      ],
      "stateMutability": "view",
      "type": "function"
    },
    {
      "inputs": [],
      "name": "INSTRUCTOR_ROLE",
      "outputs": [
        {
          "internalType": "bytes32",
          "name": "",
          "type": "bytes32"
        }
      ],
      "stateMutability": "view",
      "type": "function"
    },
    {
      "inputs": [],
      "name": "LEARNER_ROLE",
      "outputs": [
        {
          "internalType": "bytes32",
          "name": "",
          "type": "bytes32"
        }
      ],
      "stateMutability": "view",
      "type": "function"
    },
    {
      "inputs": [
        {
          "internalType": "bytes32",
          "name": "",
          "type": "bytes32"
        }
      ],
      "name": "courses",
      "outputs": [
        {
          "internalType": "bytes32",
          "name": "uid",
          "type": "bytes32"
        },
        {
          "internalType": "address",
          "name": "creator",
          "type": "address"
        },
        {
          "internalType": "enum CCRManager.Tag",
          "name": "tag",
          "type": "uint8"
        },
        {
          "internalType": "enum CCRManager.Status",
          "name": "status",
          "type": "uint8"
        },
        {
          "internalType": "uint256",
          "name": "priceInMatic",
          "type": "uint256"
        },
        {
          "internalType": "string",
          "name": "videoLink",
          "type": "string"
        }
      ],
      "stateMutability": "view",
      "type": "function"
    },
    {
      "inputs": [
        {
          "internalType": "bytes32",
          "name": "_uid",
          "type": "bytes32"
        },
        {
          "internalType": "enum CCRManager.Tag",
          "name": "_tag",
          "type": "uint8"
        },
        {
          "internalType": "uint256",
          "name": "_priceInMatic",
          "type": "uint256"
        },
        {
          "internalType": "string",
          "name": "_videoLink",
          "type": "string"
        }
      ],
      "name": "createCourse",
      "outputs": [
        {
          "components": [
            {
              "internalType": "bytes32",
              "name": "uid",
              "type": "bytes32"
            },
            {
              "internalType": "address",
              "name": "creator",
              "type": "address"
            },
            {
              "internalType": "enum CCRManager.Tag",
              "name": "tag",
              "type": "uint8"
            },
            {
              "internalType": "enum CCRManager.Status",
              "name": "status",
              "type": "uint8"
            },
            {
              "internalType": "uint256",
              "name": "priceInMatic",
              "type": "uint256"
            },
            {
              "internalType": "address[]",
              "name": "students",
              "type": "address[]"
            },
            {
              "internalType": "string",
              "name": "videoLink",
              "type": "string"
            }
          ],
          "internalType": "struct CCRManager.Course",
          "name": "",
          "type": "tuple"
        }
      ],
      "stateMutability": "nonpayable",
      "type": "function"
    },
    {
      "inputs": [
        {
          "internalType": "bytes32",
          "name": "_uid",
          "type": "bytes32"
        }
      ],
      "name": "enrollCourse",
      "outputs": [
        {
          "components": [
            {
              "internalType": "bytes32",
              "name": "uid",
              "type": "bytes32"
            },
            {
              "internalType": "address",
              "name": "creator",
              "type": "address"
            },
            {
              "internalType": "enum CCRManager.Tag",
              "name": "tag",
              "type": "uint8"
            },
            {
              "internalType": "enum CCRManager.Status",
              "name": "status",
              "type": "uint8"
            },
            {
              "internalType": "uint256",
              "name": "priceInMatic",
              "type": "uint256"
            },
            {
              "internalType": "address[]",
              "name": "students",
              "type": "address[]"
            },
            {
              "internalType": "string",
              "name": "videoLink",
              "type": "string"
            }
          ],
          "internalType": "struct CCRManager.Course",
          "name": "",
          "type": "tuple"
        }
      ],
      "stateMutability": "payable",
      "type": "function"
    },
    {
      "inputs": [
        {
          "internalType": "bytes32",
          "name": "role",
          "type": "bytes32"
        }
      ],
      "name": "getRoleAdmin",
      "outputs": [
        {
          "internalType": "bytes32",
          "name": "",
          "type": "bytes32"
        }
      ],
      "stateMutability": "view",
      "type": "function"
    },
    {
      "inputs": [
        {
          "internalType": "bytes32",
          "name": "role",
          "type": "bytes32"
        },
        {
          "internalType": "address",
          "name": "account",
          "type": "address"
        }
      ],
      "name": "grantRole",
      "outputs": [],
      "stateMutability": "nonpayable",
      "type": "function"
    },
    {
      "inputs": [
        {
          "internalType": "bytes32",
          "name": "role",
          "type": "bytes32"
        },
        {
          "internalType": "address",
          "name": "account",
          "type": "address"
        }
      ],
      "name": "hasRole",
      "outputs": [
        {
          "internalType": "bool",
          "name": "",
          "type": "bool"
        }
      ],
      "stateMutability": "view",
      "type": "function"
    },
    {
      "inputs": [
        {
          "internalType": "bytes32",
          "name": "",
          "type": "bytes32"
        },
        {
          "internalType": "address",
          "name": "",
          "type": "address"
        }
      ],
      "name": "isStudentEnrolled",
      "outputs": [
        {
          "internalType": "bool",
          "name": "",
          "type": "bool"
        }
      ],
      "stateMutability": "view",
      "type": "function"
    },
    {
      "inputs": [],
      "name": "login",
      "outputs": [
        {
          "components": [
            {
              "internalType": "address",
              "name": "addr",
              "type": "address"
            },
            {
              "internalType": "enum CCRManager.Type",
              "name": "usertype",
              "type": "uint8"
            },
            {
              "internalType": "bytes32[]",
              "name": "courses",
              "type": "bytes32[]"
            },
            {
              "internalType": "uint256",
              "name": "totalRewardsEarned",
              "type": "uint256"
            }
          ],
          "internalType": "struct CCRManager.User",
          "name": "",
          "type": "tuple"
        }
      ],
      "stateMutability": "view",
      "type": "function"
    },
    {
      "inputs": [
        {
          "internalType": "bytes32",
          "name": "role",
          "type": "bytes32"
        },
        {
          "internalType": "address",
          "name": "callerConfirmation",
          "type": "address"
        }
      ],
      "name": "renounceRole",
      "outputs": [],
      "stateMutability": "nonpayable",
      "type": "function"
    },
    {
      "inputs": [
        {
          "internalType": "bytes32",
          "name": "role",
          "type": "bytes32"
        },
        {
          "internalType": "address",
          "name": "account",
          "type": "address"
        }
      ],
      "name": "revokeRole",
      "outputs": [],
      "stateMutability": "nonpayable",
      "type": "function"
    },
    {
      "inputs": [
        {
          "internalType": "enum CCRManager.Type",
          "name": "selectedType",
          "type": "uint8"
        }
      ],
      "name": "signup",
      "outputs": [],
      "stateMutability": "nonpayable",
      "type": "function"
    },
    {
      "inputs": [
        {
          "internalType": "bytes4",
          "name": "interfaceId",
          "type": "bytes4"
        }
      ],
      "name": "supportsInterface",
      "outputs": [
        {
          "internalType": "bool",
          "name": "",
          "type": "bool"
        }
      ],
      "stateMutability": "view",
      "type": "function"
    },
    {
      "inputs": [
        {
          "internalType": "bytes32",
          "name": "_uid",
          "type": "bytes32"
        },
        {
          "internalType": "enum CCRManager.Status",
          "name": "_status",
          "type": "uint8"
        }
      ],
      "name": "updateCourse",
      "outputs": [
        {
          "components": [
            {
              "internalType": "bytes32",
              "name": "uid",
              "type": "bytes32"
            },
            {
              "internalType": "address",
              "name": "creator",
              "type": "address"
            },
            {
              "internalType": "enum CCRManager.Tag",
              "name": "tag",
              "type": "uint8"
            },
            {
              "internalType": "enum CCRManager.Status",
              "name": "status",
              "type": "uint8"
            },
            {
              "internalType": "uint256",
              "name": "priceInMatic",
              "type": "uint256"
            },
            {
              "internalType": "address[]",
              "name": "students",
              "type": "address[]"
            },
            {
              "internalType": "string",
              "name": "videoLink",
              "type": "string"
            }
          ],
          "internalType": "struct CCRManager.Course",
          "name": "",
          "type": "tuple"
        }
      ],
      "stateMutability": "nonpayable",
      "type": "function"
    },
    {
      "inputs": [
        {
          "internalType": "address",
          "name": "",
          "type": "address"
        }
      ],
      "name": "users",
      "outputs": [
        {
          "internalType": "address",
          "name": "addr",
          "type": "address"
        },
        {
          "internalType": "enum CCRManager.Type",
          "name": "usertype",
          "type": "uint8"
        },
        {
          "internalType": "uint256",
          "name": "totalRewardsEarned",
          "type": "uint256"
        }
      ],
      "stateMutability": "view",
      "type": "function"
    },
    {
      "inputs": [],
      "name": "withdrawEarnings",
      "outputs": [],
      "stateMutability": "nonpayable",
      "type": "function"
    }
  ],
  "bytecode": "0x60806040523480156200001157600080fd5b50604051620034c4380380620034c48339818101604052810190620000379190620000e9565b80600160006101000a81548173ffffffffffffffffffffffffffffffffffffffff021916908373ffffffffffffffffffffffffffffffffffffffff160217905550506200011b565b600080fd5b600073ffffffffffffffffffffffffffffffffffffffff82169050919050565b6000620000b18262000084565b9050919050565b620000c381620000a4565b8114620000cf57600080fd5b50565b600081519050620000e381620000b8565b92915050565b6000602082840312156200010257620001016200007f565b5b60006200011284828501620000d2565b91505092915050565b613399806200012b6000396000f3fe6080604052600436106101095760003560e01c806391d1485411610095578063b34e97e811610064578063b34e97e8146103be578063b73c6ce9146103e9578063c4b8875114610400578063d547741f14610442578063fd061fb41461046b57610109565b806391d14854146102da57806393ff983114610317578063a217fddf14610354578063a87430ba1461037f57610109565b80632f2ff15d116100dc5780632f2ff15d146101f0578063337168d71461021957806336568abe1461024957806364af4506146102725780638bcf979c146102af57610109565b806301ffc9a71461010e5780631f43bf371461014b578063248a9ca3146101885780632e5d9a44146101c5575b600080fd5b34801561011a57600080fd5b5061013560048036038101906101309190611f68565b610494565b6040516101429190611fb0565b60405180910390f35b34801561015757600080fd5b50610172600480360381019061016d91906121a2565b61050e565b60405161017f9190612514565b60405180910390f35b34801561019457600080fd5b506101af60048036038101906101aa9190612536565b610786565b6040516101bc9190612572565b60405180910390f35b3480156101d157600080fd5b506101da6107a5565b6040516101e79190612572565b60405180910390f35b3480156101fc57600080fd5b50610217600480360381019061021291906125b9565b6107c9565b005b610233600480360381019061022e9190612536565b6107eb565b6040516102409190612514565b60405180910390f35b34801561025557600080fd5b50610270600480360381019061026b91906125b9565b610d2a565b005b34801561027e57600080fd5b506102996004803603810190610294919061261e565b610da5565b6040516102a69190612514565b60405180910390f35b3480156102bb57600080fd5b506102c4611152565b6040516102d19190612572565b60405180910390f35b3480156102e657600080fd5b5061030160048036038101906102fc91906125b9565b611176565b60405161030e9190611fb0565b60405180910390f35b34801561032357600080fd5b5061033e600480360381019061033991906125b9565b6111e0565b60405161034b9190611fb0565b60405180910390f35b34801561036057600080fd5b5061036961120f565b6040516103769190612572565b60405180910390f35b34801561038b57600080fd5b506103a660048036038101906103a1919061265e565b611216565b6040516103b5939291906126f1565b60405180910390f35b3480156103ca57600080fd5b506103d361126d565b6040516103e09190612849565b60405180910390f35b3480156103f557600080fd5b506103fe611488565b005b34801561040c57600080fd5b5061042760048036038101906104229190612536565b61167b565b604051610439969594939291906128d3565b60405180910390f35b34801561044e57600080fd5b50610469600480360381019061046491906125b9565b611779565b005b34801561047757600080fd5b50610492600480360381019061048d9190612960565b61179b565b005b60007f7965db0b000000000000000000000000000000000000000000000000000000007bffffffffffffffffffffffffffffffffffffffffffffffffffffffff1916827bffffffffffffffffffffffffffffffffffffffffffffffffffffffff19161480610507575061050682611a67565b5b9050919050565b610516611d21565b6105407fae4a0595970935aa5495afbbb72e5f1f6ff1062766b4a3028c0c9b7d5cf7e34533611176565b61057f576040517f08c379a0000000000000000000000000000000000000000000000000000000008152600401610576906129d9565b60405180910390fd5b60006040518060e001604052808781526020013373ffffffffffffffffffffffffffffffffffffffff1681526020018660038111156105c1576105c0612275565b5b8152602001600060058111156105da576105d9612275565b5b8152602001858152602001600067ffffffffffffffff811115610600576105ff612077565b5b60405190808252806020026020018201604052801561062e5781602001602082028036833780820191505090505b50815260200184815250905080600360008881526020019081526020016000206000820151816000015560208201518160010160006101000a81548173ffffffffffffffffffffffffffffffffffffffff021916908373ffffffffffffffffffffffffffffffffffffffff16021790555060408201518160010160146101000a81548160ff021916908360038111156106ca576106c9612275565b5b021790555060608201518160010160156101000a81548160ff021916908360058111156106fa576106f9612275565b5b02179055506080820151816002015560a0820151816003019080519060200190610725929190611d9b565b5060c082015181600401908161073b9190612c05565b509050507f8ea5336e160eb28a5506540aa0847991ccdbd572d6a37a4e7f6821bd1295a93286338560405161077293929190612cd7565b60405180910390a180915050949350505050565b6000806000838152602001908152602001600020600101549050919050565b7ffd87ecfb3c6109e8218d601d5ce7e29b2f140acd1e2354ba6b44435d2349b14281565b6107d282610786565b6107db81611ad1565b6107e58383611ae5565b50505050565b6107f3611d21565b61081d7ffd87ecfb3c6109e8218d601d5ce7e29b2f140acd1e2354ba6b44435d2349b14233611176565b61085c576040517f08c379a000000000000000000000000000000000000000000000000000000000815260040161085390612d61565b60405180910390fd5b60006003600084815260200190815260200160002090506003600581111561088757610886612275565b5b8160010160159054906101000a900460ff1660058111156108ab576108aa612275565b5b14806108ec5750600460058111156108c6576108c5612275565b5b8160010160159054906101000a900460ff1660058111156108ea576108e9612275565b5b145b61092b576040517f08c379a000000000000000000000000000000000000000000000000000000000815260040161092290612df3565b60405180910390fd5b80600201543414610971576040517f08c379a000000000000000000000000000000000000000000000000000000000815260040161096890612e85565b60405180910390fd5b6004600084815260200190815260200160002060003373ffffffffffffffffffffffffffffffffffffffff1673ffffffffffffffffffffffffffffffffffffffff16815260200190815260200160002060009054906101000a900460ff1615610a0f576040517f08c379a0000000000000000000000000000000000000000000000000000000008152600401610a0690612ef1565b60405180910390fd5b60016004600085815260200190815260200160002060003373ffffffffffffffffffffffffffffffffffffffff1673ffffffffffffffffffffffffffffffffffffffff16815260200190815260200160002060006101000a81548160ff02191690831515021790555080600301339080600181540180825580915050600190039060005260206000200160009091909190916101000a81548173ffffffffffffffffffffffffffffffffffffffff021916908373ffffffffffffffffffffffffffffffffffffffff1602179055507f551411f521a7e01a82c08dba6e1b7ce35bb16e189c955efd3f1df043ee2e7cc98333604051610b0e929190612f11565b60405180910390a1806040518060e0016040529081600082015481526020016001820160009054906101000a900473ffffffffffffffffffffffffffffffffffffffff1673ffffffffffffffffffffffffffffffffffffffff1673ffffffffffffffffffffffffffffffffffffffff1681526020016001820160149054906101000a900460ff166003811115610ba757610ba6612275565b5b6003811115610bb957610bb8612275565b5b81526020016001820160159054906101000a900460ff166005811115610be257610be1612275565b5b6005811115610bf457610bf3612275565b5b81526020016002820154815260200160038201805480602002602001604051908101604052809291908181526020018280548015610c8757602002820191906000526020600020905b8160009054906101000a900473ffffffffffffffffffffffffffffffffffffffff1673ffffffffffffffffffffffffffffffffffffffff1681526020019060010190808311610c3d575b50505050508152602001600482018054610ca090612a28565b80601f0160208091040260200160405190810160405280929190818152602001828054610ccc90612a28565b8015610d195780601f10610cee57610100808354040283529160200191610d19565b820191906000526020600020905b815481529060010190602001808311610cfc57829003601f168201915b505050505081525050915050919050565b610d32611bd6565b73ffffffffffffffffffffffffffffffffffffffff168173ffffffffffffffffffffffffffffffffffffffff1614610d96576040517f6697b23200000000000000000000000000000000000000000000000000000000815260040160405180910390fd5b610da08282611bde565b505050565b610dad611d21565b610dd77fae4a0595970935aa5495afbbb72e5f1f6ff1062766b4a3028c0c9b7d5cf7e34533611176565b610e16576040517f08c379a0000000000000000000000000000000000000000000000000000000008152600401610e0d906129d9565b60405180910390fd5b3373ffffffffffffffffffffffffffffffffffffffff166003600085815260200190815260200160002060010160009054906101000a900473ffffffffffffffffffffffffffffffffffffffff1673ffffffffffffffffffffffffffffffffffffffff1614610eba576040517f08c379a0000000000000000000000000000000000000000000000000000000008152600401610eb190612f86565b60405180910390fd5b6000600360008581526020019081526020016000209050828160010160156101000a81548160ff02191690836005811115610ef857610ef7612275565b5b02179055507f77603fa2bea2ba2cb3b42bca9019691c63e29432f19d278b4f6a8bd6296fb35484338584600401604051610f35949392919061302a565b60405180910390a1806040518060e0016040529081600082015481526020016001820160009054906101000a900473ffffffffffffffffffffffffffffffffffffffff1673ffffffffffffffffffffffffffffffffffffffff1673ffffffffffffffffffffffffffffffffffffffff1681526020016001820160149054906101000a900460ff166003811115610fce57610fcd612275565b5b6003811115610fe057610fdf612275565b5b81526020016001820160159054906101000a900460ff16600581111561100957611008612275565b5b600581111561101b5761101a612275565b5b815260200160028201548152602001600382018054806020026020016040519081016040528092919081815260200182805480156110ae57602002820191906000526020600020905b8160009054906101000a900473ffffffffffffffffffffffffffffffffffffffff1673ffffffffffffffffffffffffffffffffffffffff1681526020019060010190808311611064575b505050505081526020016004820180546110c790612a28565b80601f01602080910402602001604051908101604052809291908181526020018280546110f390612a28565b80156111405780601f1061111557610100808354040283529160200191611140565b820191906000526020600020905b81548152906001019060200180831161112357829003601f168201915b50505050508152505091505092915050565b7fae4a0595970935aa5495afbbb72e5f1f6ff1062766b4a3028c0c9b7d5cf7e34581565b600080600084815260200190815260200160002060000160008373ffffffffffffffffffffffffffffffffffffffff1673ffffffffffffffffffffffffffffffffffffffff16815260200190815260200160002060009054906101000a900460ff16905092915050565b60046020528160005260406000206020528060005260406000206000915091509054906101000a900460ff1681565b6000801b81565b60026020528060005260406000206000915090508060000160009054906101000a900473ffffffffffffffffffffffffffffffffffffffff16908060000160149054906101000a900460ff16908060020154905083565b611275611e25565b600073ffffffffffffffffffffffffffffffffffffffff16600260003373ffffffffffffffffffffffffffffffffffffffff1673ffffffffffffffffffffffffffffffffffffffff16815260200190815260200160002060000160009054906101000a900473ffffffffffffffffffffffffffffffffffffffff1673ffffffffffffffffffffffffffffffffffffffff1603611346576040517f08c379a000000000000000000000000000000000000000000000000000000000815260040161133d906130c2565b60405180910390fd5b600260003373ffffffffffffffffffffffffffffffffffffffff1673ffffffffffffffffffffffffffffffffffffffff1681526020019081526020016000206040518060800160405290816000820160009054906101000a900473ffffffffffffffffffffffffffffffffffffffff1673ffffffffffffffffffffffffffffffffffffffff1673ffffffffffffffffffffffffffffffffffffffff1681526020016000820160149054906101000a900460ff16600181111561140b5761140a612275565b5b600181111561141d5761141c612275565b5b81526020016001820180548060200260200160405190810160405280929190818152602001828054801561147057602002820191906000526020600020905b81548152602001906001019080831161145c575b50505050508152602001600282015481525050905090565b6000600260003373ffffffffffffffffffffffffffffffffffffffff1673ffffffffffffffffffffffffffffffffffffffff16815260200190815260200160002090506001808111156114de576114dd612275565b5b8160000160149054906101000a900460ff16600181111561150257611501612275565b5b14611542576040517f08c379a000000000000000000000000000000000000000000000000000000000815260040161153990613154565b60405180910390fd5b6000816002015490506000811161158e576040517f08c379a0000000000000000000000000000000000000000000000000000000008152600401611585906131c0565b60405180910390fd5b60008260020181905550600160009054906101000a900473ffffffffffffffffffffffffffffffffffffffff1673ffffffffffffffffffffffffffffffffffffffff1663a9059cbb33836040518363ffffffff1660e01b81526004016115f59291906131e0565b6020604051808303816000875af1158015611614573d6000803e3d6000fd5b505050506040513d601f19601f820116820180604052508101906116389190613235565b611677576040517f08c379a000000000000000000000000000000000000000000000000000000000815260040161166e906132ae565b60405180910390fd5b5050565b60036020528060005260406000206000915090508060000154908060010160009054906101000a900473ffffffffffffffffffffffffffffffffffffffff16908060010160149054906101000a900460ff16908060010160159054906101000a900460ff16908060020154908060040180546116f690612a28565b80601f016020809104026020016040519081016040528092919081815260200182805461172290612a28565b801561176f5780601f106117445761010080835404028352916020019161176f565b820191906000526020600020905b81548152906001019060200180831161175257829003601f168201915b5050505050905086565b61178282610786565b61178b81611ad1565b6117958383611bde565b50505050565b600073ffffffffffffffffffffffffffffffffffffffff16600260003373ffffffffffffffffffffffffffffffffffffffff1673ffffffffffffffffffffffffffffffffffffffff16815260200190815260200160002060000160009054906101000a900473ffffffffffffffffffffffffffffffffffffffff1673ffffffffffffffffffffffffffffffffffffffff161461186c576040517f08c379a00000000000000000000000000000000000000000000000000000000081526004016118639061331a565b60405180910390fd5b60405180608001604052803373ffffffffffffffffffffffffffffffffffffffff1681526020018260018111156118a6576118a5612275565b5b8152602001600067ffffffffffffffff8111156118c6576118c5612077565b5b6040519080825280602002602001820160405280156118f45781602001602082028036833780820191505090505b5081526020016000815250600260003373ffffffffffffffffffffffffffffffffffffffff1673ffffffffffffffffffffffffffffffffffffffff16815260200190815260200160002060008201518160000160006101000a81548173ffffffffffffffffffffffffffffffffffffffff021916908373ffffffffffffffffffffffffffffffffffffffff16021790555060208201518160000160146101000a81548160ff021916908360018111156119b0576119af612275565b5b021790555060408201518160010190805190602001906119d1929190611e75565b50606082015181600201559050506001808111156119f2576119f1612275565b5b816001811115611a0557611a04612275565b5b03611a3957611a347fae4a0595970935aa5495afbbb72e5f1f6ff1062766b4a3028c0c9b7d5cf7e345336107c9565b611a64565b611a637ffd87ecfb3c6109e8218d601d5ce7e29b2f140acd1e2354ba6b44435d2349b142336107c9565b5b50565b60007f01ffc9a7000000000000000000000000000000000000000000000000000000007bffffffffffffffffffffffffffffffffffffffffffffffffffffffff1916827bffffffffffffffffffffffffffffffffffffffffffffffffffffffff1916149050919050565b611ae281611add611bd6565b611cd0565b50565b6000611af18383611176565b611bcb57600160008085815260200190815260200160002060000160008473ffffffffffffffffffffffffffffffffffffffff1673ffffffffffffffffffffffffffffffffffffffff16815260200190815260200160002060006101000a81548160ff021916908315150217905550611b68611bd6565b73ffffffffffffffffffffffffffffffffffffffff168273ffffffffffffffffffffffffffffffffffffffff16847f2f8788117e7eff1d82e926ec794901d17c78024a50270940304540a733656f0d60405160405180910390a460019050611bd0565b600090505b92915050565b600033905090565b6000611bea8383611176565b15611cc557600080600085815260200190815260200160002060000160008473ffffffffffffffffffffffffffffffffffffffff1673ffffffffffffffffffffffffffffffffffffffff16815260200190815260200160002060006101000a81548160ff021916908315150217905550611c62611bd6565b73ffffffffffffffffffffffffffffffffffffffff168273ffffffffffffffffffffffffffffffffffffffff16847ff6391f5c32d9c69d2a47ea670b442974b53935d1edc7fd64eb21e047a839171b60405160405180910390a460019050611cca565b600090505b92915050565b611cda8282611176565b611d1d5780826040517fe2517d3f000000000000000000000000000000000000000000000000000000008152600401611d1492919061333a565b60405180910390fd5b5050565b6040518060e0016040528060008019168152602001600073ffffffffffffffffffffffffffffffffffffffff16815260200160006003811115611d6757611d66612275565b5b815260200160006005811115611d8057611d7f612275565b5b81526020016000815260200160608152602001606081525090565b828054828255906000526020600020908101928215611e14579160200282015b82811115611e135782518260006101000a81548173ffffffffffffffffffffffffffffffffffffffff021916908373ffffffffffffffffffffffffffffffffffffffff16021790555091602001919060010190611dbb565b5b509050611e219190611ec2565b5090565b6040518060800160405280600073ffffffffffffffffffffffffffffffffffffffff16815260200160006001811115611e6157611e60612275565b5b815260200160608152602001600081525090565b828054828255906000526020600020908101928215611eb1579160200282015b82811115611eb0578251825591602001919060010190611e95565b5b509050611ebe9190611edf565b5090565b5b80821115611edb576000816000905550600101611ec3565b5090565b5b80821115611ef8576000816000905550600101611ee0565b5090565b6000604051905090565b600080fd5b600080fd5b60007fffffffff0000000000000000000000000000000000000000000000000000000082169050919050565b611f4581611f10565b8114611f5057600080fd5b50565b600081359050611f6281611f3c565b92915050565b600060208284031215611f7e57611f7d611f06565b5b6000611f8c84828501611f53565b91505092915050565b60008115159050919050565b611faa81611f95565b82525050565b6000602082019050611fc56000830184611fa1565b92915050565b6000819050919050565b611fde81611fcb565b8114611fe957600080fd5b50565b600081359050611ffb81611fd5565b92915050565b6004811061200e57600080fd5b50565b60008135905061202081612001565b92915050565b6000819050919050565b61203981612026565b811461204457600080fd5b50565b60008135905061205681612030565b92915050565b600080fd5b600080fd5b6000601f19601f8301169050919050565b7f4e487b7100000000000000000000000000000000000000000000000000000000600052604160045260246000fd5b6120af82612066565b810181811067ffffffffffffffff821117156120ce576120cd612077565b5b80604052505050565b60006120e1611efc565b90506120ed82826120a6565b919050565b600067ffffffffffffffff82111561210d5761210c612077565b5b61211682612066565b9050602081019050919050565b82818337600083830152505050565b6000612145612140846120f2565b6120d7565b90508281526020810184848401111561216157612160612061565b5b61216c848285612123565b509392505050565b600082601f8301126121895761218861205c565b5b8135612199848260208601612132565b91505092915050565b600080600080608085870312156121bc576121bb611f06565b5b60006121ca87828801611fec565b94505060206121db87828801612011565b93505060406121ec87828801612047565b925050606085013567ffffffffffffffff81111561220d5761220c611f0b565b5b61221987828801612174565b91505092959194509250565b61222e81611fcb565b82525050565b600073ffffffffffffffffffffffffffffffffffffffff82169050919050565b600061225f82612234565b9050919050565b61226f81612254565b82525050565b7f4e487b7100000000000000000000000000000000000000000000000000000000600052602160045260246000fd5b600481106122b5576122b4612275565b5b50565b60008190506122c6826122a4565b919050565b60006122d6826122b8565b9050919050565b6122e6816122cb565b82525050565b600681106122fd576122fc612275565b5b50565b600081905061230e826122ec565b919050565b600061231e82612300565b9050919050565b61232e81612313565b82525050565b61233d81612026565b82525050565b600081519050919050565b600082825260208201905092915050565b6000819050602082019050919050565b600061237b8383612266565b60208301905092915050565b6000602082019050919050565b600061239f82612343565b6123a9818561234e565b93506123b48361235f565b8060005b838110156123e55781516123cc888261236f565b97506123d783612387565b9250506001810190506123b8565b5085935050505092915050565b600081519050919050565b600082825260208201905092915050565b60005b8381101561242c578082015181840152602081019050612411565b60008484015250505050565b6000612443826123f2565b61244d81856123fd565b935061245d81856020860161240e565b61246681612066565b840191505092915050565b600060e0830160008301516124896000860182612225565b50602083015161249c6020860182612266565b5060408301516124af60408601826122dd565b5060608301516124c26060860182612325565b5060808301516124d56080860182612334565b5060a083015184820360a08601526124ed8282612394565b91505060c083015184820360c08601526125078282612438565b9150508091505092915050565b6000602082019050818103600083015261252e8184612471565b905092915050565b60006020828403121561254c5761254b611f06565b5b600061255a84828501611fec565b91505092915050565b61256c81611fcb565b82525050565b60006020820190506125876000830184612563565b92915050565b61259681612254565b81146125a157600080fd5b50565b6000813590506125b38161258d565b92915050565b600080604083850312156125d0576125cf611f06565b5b60006125de85828601611fec565b92505060206125ef858286016125a4565b9150509250929050565b6006811061260657600080fd5b50565b600081359050612618816125f9565b92915050565b6000806040838503121561263557612634611f06565b5b600061264385828601611fec565b925050602061265485828601612609565b9150509250929050565b60006020828403121561267457612673611f06565b5b6000612682848285016125a4565b91505092915050565b61269481612254565b82525050565b600281106126ab576126aa612275565b5b50565b60008190506126bc8261269a565b919050565b60006126cc826126ae565b9050919050565b6126dc816126c1565b82525050565b6126eb81612026565b82525050565b6000606082019050612706600083018661268b565b61271360208301856126d3565b61272060408301846126e2565b949350505050565b612731816126c1565b82525050565b600081519050919050565b600082825260208201905092915050565b6000819050602082019050919050565b600061276f8383612225565b60208301905092915050565b6000602082019050919050565b600061279382612737565b61279d8185612742565b93506127a883612753565b8060005b838110156127d95781516127c08882612763565b97506127cb8361277b565b9250506001810190506127ac565b5085935050505092915050565b60006080830160008301516127fe6000860182612266565b5060208301516128116020860182612728565b50604083015184820360408601526128298282612788565b915050606083015161283e6060860182612334565b508091505092915050565b6000602082019050818103600083015261286381846127e6565b905092915050565b612874816122cb565b82525050565b61288381612313565b82525050565b600082825260208201905092915050565b60006128a5826123f2565b6128af8185612889565b93506128bf81856020860161240e565b6128c881612066565b840191505092915050565b600060c0820190506128e86000830189612563565b6128f5602083018861268b565b612902604083018761286b565b61290f606083018661287a565b61291c60808301856126e2565b81810360a083015261292e818461289a565b9050979650505050505050565b6002811061294857600080fd5b50565b60008135905061295a8161293b565b92915050565b60006020828403121561297657612975611f06565b5b60006129848482850161294b565b91505092915050565b7f43616c6c6572206973206e6f7420616e20696e7374727563746f720000000000600082015250565b60006129c3601b83612889565b91506129ce8261298d565b602082019050919050565b600060208201905081810360008301526129f2816129b6565b9050919050565b7f4e487b7100000000000000000000000000000000000000000000000000000000600052602260045260246000fd5b60006002820490506001821680612a4057607f821691505b602082108103612a5357612a526129f9565b5b50919050565b60008190508160005260206000209050919050565b60006020601f8301049050919050565b600082821b905092915050565b600060088302612abb7fffffffffffffffffffffffffffffffffffffffffffffffffffffffffffffffff82612a7e565b612ac58683612a7e565b95508019841693508086168417925050509392505050565b6000819050919050565b6000612b02612afd612af884612026565b612add565b612026565b9050919050565b6000819050919050565b612b1c83612ae7565b612b30612b2882612b09565b848454612a8b565b825550505050565b600090565b612b45612b38565b612b50818484612b13565b505050565b5b81811015612b7457612b69600082612b3d565b600181019050612b56565b5050565b601f821115612bb957612b8a81612a59565b612b9384612a6e565b81016020851015612ba2578190505b612bb6612bae85612a6e565b830182612b55565b50505b505050565b600082821c905092915050565b6000612bdc60001984600802612bbe565b1980831691505092915050565b6000612bf58383612bcb565b9150826002028217905092915050565b612c0e826123f2565b67ffffffffffffffff811115612c2757612c26612077565b5b612c318254612a28565b612c3c828285612b78565b600060209050601f831160018114612c6f5760008415612c5d578287015190505b612c678582612be9565b865550612ccf565b601f198416612c7d86612a59565b60005b82811015612ca557848901518255600182019150602085019450602081019050612c80565b86831015612cc25784890151612cbe601f891682612bcb565b8355505b6001600288020188555050505b505050505050565b6000606082019050612cec6000830186612563565b612cf9602083018561268b565b8181036040830152612d0b818461289a565b9050949350505050565b7f43616c6c6572206973206e6f742061206c6561726e6572000000000000000000600082015250565b6000612d4b601783612889565b9150612d5682612d15565b602082019050919050565b60006020820190508181036000830152612d7a81612d3e565b9050919050565b7f436f75727365206e6f7420617661696c61626c6520666f7220656e726f6c6c6d60008201527f656e740000000000000000000000000000000000000000000000000000000000602082015250565b6000612ddd602383612889565b9150612de882612d81565b604082019050919050565b60006020820190508181036000830152612e0c81612dd0565b9050919050565b7f496e636f727265637420616d6f756e742073656e7420666f7220636f7572736560008201527f20656e726f6c6c6d656e74000000000000000000000000000000000000000000602082015250565b6000612e6f602b83612889565b9150612e7a82612e13565b604082019050919050565b60006020820190508181036000830152612e9e81612e62565b9050919050565b7f416c726561647920656e726f6c6c656420696e207468697320636f7572736500600082015250565b6000612edb601f83612889565b9150612ee682612ea5565b602082019050919050565b60006020820190508181036000830152612f0a81612ece565b9050919050565b6000604082019050612f266000830185612563565b612f33602083018461268b565b9392505050565b7f4f6e6c7920636f757273652063726561746f722063616e207570646174650000600082015250565b6000612f70601e83612889565b9150612f7b82612f3a565b602082019050919050565b60006020820190508181036000830152612f9f81612f63565b9050919050565b60008154612fb381612a28565b612fbd8186612889565b94506001821660008114612fd85760018114612fee57613021565b60ff198316865281151560200286019350613021565b612ff785612a59565b60005b8381101561301957815481890152600182019150602081019050612ffa565b808801955050505b50505092915050565b600060808201905061303f6000830187612563565b61304c602083018661268b565b613059604083018561287a565b818103606083015261306b8184612fa6565b905095945050505050565b7f55736572206e6f74207265676973746572656400000000000000000000000000600082015250565b60006130ac601383612889565b91506130b782613076565b602082019050919050565b600060208201905081810360008301526130db8161309f565b9050919050565b7f4f6e6c7920696e7374727563746f72732063616e20776974686472617720656160008201527f726e696e67730000000000000000000000000000000000000000000000000000602082015250565b600061313e602683612889565b9150613149826130e2565b604082019050919050565b6000602082019050818103600083015261316d81613131565b9050919050565b7f4e6f207265776172647320746f20776974686472617700000000000000000000600082015250565b60006131aa601683612889565b91506131b582613174565b602082019050919050565b600060208201905081810360008301526131d98161319d565b9050919050565b60006040820190506131f5600083018561268b565b61320260208301846126e2565b9392505050565b61321281611f95565b811461321d57600080fd5b50565b60008151905061322f81613209565b92915050565b60006020828403121561324b5761324a611f06565b5b600061325984828501613220565b91505092915050565b7f4661696c656420746f207472616e73666572206561726e696e67730000000000600082015250565b6000613298601b83612889565b91506132a382613262565b602082019050919050565b600060208201905081810360008301526132c78161328b565b9050919050565b7f5573657220616c72656164792065786973747300000000000000000000000000600082015250565b6000613304601383612889565b915061330f826132ce565b602082019050919050565b60006020820190508181036000830152613333816132f7565b9050919050565b600060408201905061334f600083018561268b565b61335c6020830184612563565b939250505056fea2646970667358221220ccf51255124db06b361b3a0e11384ca395ca1dd98e3a73bb0a36cd8adeb3080664736f6c63430008180033",
  "linkReferences": {},
  "deployedLinkReferences": {}
}